{
  "_format": "hh-sol-artifact-1",
  "contractName": "CustomDex",
  "sourceName": "contracts/CustomDex.sol",
  "abi": [
    {
      "inputs": [],
      "stateMutability": "nonpayable",
      "type": "constructor"
    },
    {
      "inputs": [],
      "name": "_historyIndex",
      "outputs": [
        {
          "internalType": "uint256",
          "name": "",
          "type": "uint256"
        }
      ],
      "stateMutability": "view",
      "type": "function"
    },
    {
      "inputs": [],
      "name": "ethValue",
      "outputs": [
        {
          "internalType": "uint256",
          "name": "",
          "type": "uint256"
        }
      ],
      "stateMutability": "view",
      "type": "function"
    },
    {
      "inputs": [],
      "name": "getAllHistory",
      "outputs": [
        {
          "components": [
            {
              "internalType": "uint256",
              "name": "historyId",
              "type": "uint256"
            },
            {
              "internalType": "string",
              "name": "tokenA",
              "type": "string"
            },
            {
              "internalType": "string",
              "name": "tokenB",
              "type": "string"
            },
            {
              "internalType": "uint256",
              "name": "inputValue",
              "type": "uint256"
            },
            {
              "internalType": "uint256",
              "name": "outputValue",
              "type": "uint256"
            },
            {
              "internalType": "address",
              "name": "userAddress",
              "type": "address"
            }
          ],
          "internalType": "struct CustomDex.History[]",
          "name": "",
          "type": "tuple[]"
        }
      ],
      "stateMutability": "view",
      "type": "function"
    },
    {
      "inputs": [
        {
          "internalType": "string",
          "name": "tokenName",
          "type": "string"
        },
        {
          "internalType": "address",
          "name": "_address",
          "type": "address"
        }
      ],
      "name": "getBalance",
      "outputs": [
        {
          "internalType": "uint256",
          "name": "",
          "type": "uint256"
        }
      ],
      "stateMutability": "view",
      "type": "function"
    },
    {
      "inputs": [],
      "name": "getEthBalance",
      "outputs": [
        {
          "internalType": "uint256",
          "name": "",
          "type": "uint256"
        }
      ],
      "stateMutability": "view",
      "type": "function"
    },
    {
      "inputs": [
        {
          "internalType": "string",
          "name": "tokenName",
          "type": "string"
        }
      ],
      "name": "getName",
      "outputs": [
        {
          "internalType": "string",
          "name": "",
          "type": "string"
        }
      ],
      "stateMutability": "view",
      "type": "function"
    },
    {
      "inputs": [
        {
          "internalType": "string",
          "name": "tokenName",
          "type": "string"
        }
      ],
      "name": "getTokenAddress",
      "outputs": [
        {
          "internalType": "address",
          "name": "",
          "type": "address"
        }
      ],
      "stateMutability": "view",
      "type": "function"
    },
    {
      "inputs": [
        {
          "internalType": "string",
          "name": "tokenName",
          "type": "string"
        }
      ],
      "name": "getTotalSupply",
      "outputs": [
        {
          "internalType": "uint256",
          "name": "",
          "type": "uint256"
        }
      ],
      "stateMutability": "view",
      "type": "function"
    },
    {
      "inputs": [
        {
          "internalType": "uint256",
          "name": "",
          "type": "uint256"
        }
      ],
      "name": "historys",
      "outputs": [
        {
          "internalType": "uint256",
          "name": "historyId",
          "type": "uint256"
        },
        {
          "internalType": "string",
          "name": "tokenA",
          "type": "string"
        },
        {
          "internalType": "string",
          "name": "tokenB",
          "type": "string"
        },
        {
          "internalType": "uint256",
          "name": "inputValue",
          "type": "uint256"
        },
        {
          "internalType": "uint256",
          "name": "outputValue",
          "type": "uint256"
        },
        {
          "internalType": "address",
          "name": "userAddress",
          "type": "address"
        }
      ],
      "stateMutability": "view",
      "type": "function"
    },
    {
      "inputs": [
        {
          "internalType": "string",
          "name": "tokenName",
          "type": "string"
        }
      ],
      "name": "swapEthToToken",
      "outputs": [
        {
          "internalType": "uint256",
          "name": "",
          "type": "uint256"
        }
      ],
      "stateMutability": "payable",
      "type": "function"
    },
    {
      "inputs": [
        {
          "internalType": "string",
          "name": "tokenName",
          "type": "string"
        },
        {
          "internalType": "uint256",
          "name": "_amount",
          "type": "uint256"
        }
      ],
      "name": "swapTokenToEth",
      "outputs": [
        {
          "internalType": "uint256",
          "name": "",
          "type": "uint256"
        }
      ],
      "stateMutability": "nonpayable",
      "type": "function"
    },
    {
      "inputs": [
        {
          "internalType": "string",
          "name": "srcTokenName",
          "type": "string"
        },
        {
          "internalType": "string",
          "name": "destTokenName",
          "type": "string"
        },
        {
          "internalType": "uint256",
          "name": "_amount",
          "type": "uint256"
        }
      ],
      "name": "swapTokenToToken",
      "outputs": [],
      "stateMutability": "nonpayable",
      "type": "function"
    },
    {
      "inputs": [
        {
          "internalType": "string",
          "name": "",
          "type": "string"
        }
      ],
      "name": "tokenInstanceMap",
      "outputs": [
        {
          "internalType": "contract ERC20",
          "name": "",
          "type": "address"
        }
      ],
      "stateMutability": "view",
      "type": "function"
    },
    {
      "inputs": [
        {
          "internalType": "uint256",
          "name": "",
          "type": "uint256"
        }
      ],
      "name": "tokens",
      "outputs": [
        {
          "internalType": "string",
          "name": "",
          "type": "string"
        }
      ],
      "stateMutability": "view",
      "type": "function"
    }
  ],
  "bytecode": "0x60806040526040518061010001604052806040518060400160405280600a81526020017f546574686572205553440000000000000000000000000000000000000000000081525081526020016040518060400160405280600381526020017f424e42000000000000000000000000000000000000000000000000000000000081525081526020016040518060400160405280600881526020017f55534420436f696e00000000000000000000000000000000000000000000000081525081526020016040518060400160405280600581526020017f737445544800000000000000000000000000000000000000000000000000000081525081526020016040518060400160405280600481526020017f54524f4e0000000000000000000000000000000000000000000000000000000081525081526020016040518060400160405280600b81526020017f4d6174696320546f6b656e00000000000000000000000000000000000000000081525081526020016040518060400160405280600981526020017f534849424120494e55000000000000000000000000000000000000000000000081525081526020016040518060400160405280600781526020017f556e6973776170000000000000000000000000000000000000000000000000008152508152506000906008620001f8929190620003a9565b50655af3107a40006002553480156200021057600080fd5b5060005b600080549050811015620003a25760008082815481106200025e577f4e487b7100000000000000000000000000000000000000000000000000000000600052603260045260246000fd5b9060005260206000200160008381548110620002a3577f4e487b7100000000000000000000000000000000000000000000000000000000600052603260045260246000fd5b90600052602060002001604051620002bb9062000410565b620002c89291906200066c565b604051809103906000f080158015620002e5573d6000803e3d6000fd5b5090508060016000848154811062000326577f4e487b7100000000000000000000000000000000000000000000000000000000600052603260045260246000fd5b906000526020600020016040516200033f919062000653565b908152602001604051809103902060006101000a81548173ffffffffffffffffffffffffffffffffffffffff021916908373ffffffffffffffffffffffffffffffffffffffff160217905550508080620003999062000718565b91505062000214565b50620007c4565b828054828255906000526020600020908101928215620003fd579160200282015b82811115620003fc578251829080519060200190620003eb9291906200041e565b5091602001919060010190620003ca565b5b5090506200040c9190620004af565b5090565b611a61806200258983390190565b8280546200042c90620006e2565b90600052602060002090601f0160209004810192826200045057600085556200049c565b82601f106200046b57805160ff19168380011785556200049c565b828001600101855582156200049c579182015b828111156200049b5782518255916020019190600101906200047e565b5b509050620004ab9190620004d7565b5090565b5b80821115620004d35760008181620004c99190620004f6565b50600101620004b0565b5090565b5b80821115620004f2576000816000905550600101620004d8565b5090565b5080546200050490620006e2565b6000825580601f1062000518575062000539565b601f016020900490600052602060002090810190620005389190620004d7565b5b50565b600081546200054b81620006e2565b620005578186620006bc565b945060018216600081146200057557600181146200058857620005bf565b60ff1983168652602086019350620005bf565b6200059385620006a7565b60005b83811015620005b75781548189015260018201915060208101905062000596565b808801955050505b50505092915050565b60008154620005d781620006e2565b620005e38186620006cd565b9450600182166000811462000601576001811462000613576200064a565b60ff198316865281860193506200064a565b6200061e85620006a7565b60005b83811015620006425781548189015260018201915060208101905062000621565b838801955050505b50505092915050565b6000620006618284620005c8565b915081905092915050565b600060408201905081810360008301526200068881856200053c565b905081810360208301526200069e81846200053c565b90509392505050565b60008190508160005260206000209050919050565b600082825260208201905092915050565b600081905092915050565b6000819050919050565b60006002820490506001821680620006fb57607f821691505b6020821081141562000712576200071162000795565b5b50919050565b60006200072582620006d8565b91507fffffffffffffffffffffffffffffffffffffffffffffffffffffffffffffffff8214156200075b576200075a62000766565b5b600182019050919050565b7f4e487b7100000000000000000000000000000000000000000000000000000000600052601160045260246000fd5b7f4e487b7100000000000000000000000000000000000000000000000000000000600052602260045260246000fd5b611db580620007d46000396000f3fe6080604052600436106100dd5760003560e01c806370ed0ada1161007f578063bf015aae11610059578063bf015aae14610306578063c40912361461032f578063c48dfed01461036c578063db6f63ee14610397576100dd565b806370ed0ada1461026157806389f4b3171461028c578063a93325ed146102c9576100dd565b80634f64b2be116100bb5780634f64b2be1461017a5780635463109e146101b757806363fcf7c5146101f45780636932cf8114610224576100dd565b806312ff3be3146100e257806319b3c12d1461012457806339c5891a1461014f575b600080fd5b3480156100ee57600080fd5b506101096004803603810190610104919061155d565b6103d4565b60405161011b96959493929190611922565b60405180910390f35b34801561013057600080fd5b50610139610540565b6040516101469190611907565b60405180910390f35b34801561015b57600080fd5b50610164610546565b6040516101719190611888565b60405180910390f35b34801561018657600080fd5b506101a1600480360381019061019c919061155d565b610817565b6040516101ae91906118c5565b60405180910390f35b3480156101c357600080fd5b506101de60048036038101906101d991906113b4565b6108c3565b6040516101eb9190611907565b60405180910390f35b61020e600480360381019061020991906113b4565b610988565b60405161021b9190611907565b60405180910390f35b34801561023057600080fd5b5061024b600480360381019061024691906113b4565b610ad8565b60405161025891906118c5565b60405180910390f35b34801561026d57600080fd5b50610276610ba2565b6040516102839190611907565b60405180910390f35b34801561029857600080fd5b506102b360048036038101906102ae9190611436565b610baa565b6040516102c09190611907565b60405180910390f35b3480156102d557600080fd5b506102f060048036038101906102eb91906113b4565b610c7b565b6040516102fd91906118aa565b60405180910390f35b34801561031257600080fd5b5061032d6004803603810190610328919061148a565b610cc4565b005b34801561033b57600080fd5b50610356600480360381019061035191906113b4565b610e7f565b604051610363919061180d565b60405180910390f35b34801561037857600080fd5b50610381610ec7565b60405161038e9190611907565b60405180910390f35b3480156103a357600080fd5b506103be60048036038101906103b99190611509565b610ecd565b6040516103cb9190611907565b60405180910390f35b60046020528060005260406000206000915090508060000154908060010180546103fd90611bf2565b80601f016020809104026020016040519081016040528092919081815260200182805461042990611bf2565b80156104765780601f1061044b57610100808354040283529160200191610476565b820191906000526020600020905b81548152906001019060200180831161045957829003601f168201915b50505050509080600201805461048b90611bf2565b80601f01602080910402602001604051908101604052809291908181526020018280546104b790611bf2565b80156105045780601f106104d957610100808354040283529160200191610504565b820191906000526020600020905b8154815290600101906020018083116104e757829003601f168201915b5050505050908060030154908060040154908060050160009054906101000a900473ffffffffffffffffffffffffffffffffffffffff16905086565b60035481565b6060600060035490506000808267ffffffffffffffff811115610592577f4e487b7100000000000000000000000000000000000000000000000000000000600052604160045260246000fd5b6040519080825280602002602001820160405280156105cb57816020015b6105b8611178565b8152602001906001900390816105b05790505b50905060005b8381101561080d5760006001826105e89190611a63565b90506000600460008381526020019081526020016000209050806040518060c00160405290816000820154815260200160018201805461062790611bf2565b80601f016020809104026020016040519081016040528092919081815260200182805461065390611bf2565b80156106a05780601f10610675576101008083540402835291602001916106a0565b820191906000526020600020905b81548152906001019060200180831161068357829003601f168201915b505050505081526020016002820180546106b990611bf2565b80601f01602080910402602001604051908101604052809291908181526020018280546106e590611bf2565b80156107325780601f1061070757610100808354040283529160200191610732565b820191906000526020600020905b81548152906001019060200180831161071557829003601f168201915b5050505050815260200160038201548152602001600482015481526020016005820160009054906101000a900473ffffffffffffffffffffffffffffffffffffffff1673ffffffffffffffffffffffffffffffffffffffff1673ffffffffffffffffffffffffffffffffffffffff16815250508486815181106107de577f4e487b7100000000000000000000000000000000000000000000000000000000600052603260045260246000fd5b60200260200101819052506001856107f69190611a63565b94505050808061080590611c24565b9150506105d1565b5080935050505090565b6000818154811061082757600080fd5b90600052602060002001600091509050805461084290611bf2565b80601f016020809104026020016040519081016040528092919081815260200182805461086e90611bf2565b80156108bb5780601f10610890576101008083540402835291602001916108bb565b820191906000526020600020905b81548152906001019060200180831161089e57829003601f168201915b505050505081565b60006001826040516108d591906117f6565b908152602001604051809103902060009054906101000a900473ffffffffffffffffffffffffffffffffffffffff1673ffffffffffffffffffffffffffffffffffffffff166318160ddd6040518163ffffffff1660e01b815260040160206040518083038186803b15801561094957600080fd5b505afa15801561095d573d6000803e3d6000fd5b505050506040513d601f19601f820116820180604052508101906109819190611586565b9050919050565b6000803490506000670de0b6b3a7640000600254836109a79190611ab9565b6109b19190611aea565b90506001846040516109c391906117f6565b908152602001604051809103902060009054906101000a900473ffffffffffffffffffffffffffffffffffffffff1673ffffffffffffffffffffffffffffffffffffffff1663a9059cbb33836040518363ffffffff1660e01b8152600401610a2c92919061185f565b602060405180830381600087803b158015610a4657600080fd5b505af1158015610a5a573d6000803e3d6000fd5b505050506040513d601f19601f82011682018060405250810190610a7e919061138b565b610a8757600080fd5b60006040518060400160405280600581526020017f45746865720000000000000000000000000000000000000000000000000000008152509050610acd858285856110aa565b819350505050919050565b6060600182604051610aea91906117f6565b908152602001604051809103902060009054906101000a900473ffffffffffffffffffffffffffffffffffffffff1673ffffffffffffffffffffffffffffffffffffffff166306fdde036040518163ffffffff1660e01b815260040160006040518083038186803b158015610b5e57600080fd5b505afa158015610b72573d6000803e3d6000fd5b505050506040513d6000823e3d601f19601f82011682018060405250810190610b9b91906113f5565b9050919050565b600047905090565b6000600183604051610bbc91906117f6565b908152602001604051809103902060009054906101000a900473ffffffffffffffffffffffffffffffffffffffff1673ffffffffffffffffffffffffffffffffffffffff166370a08231836040518263ffffffff1660e01b8152600401610c23919061180d565b60206040518083038186803b158015610c3b57600080fd5b505afa158015610c4f573d6000803e3d6000fd5b505050506040513d601f19601f82011682018060405250810190610c739190611586565b905092915050565b6001818051602081018201805184825260208301602085012081835280955050505050506000915054906101000a900473ffffffffffffffffffffffffffffffffffffffff1681565b600183604051610cd491906117f6565b908152602001604051809103902060009054906101000a900473ffffffffffffffffffffffffffffffffffffffff1673ffffffffffffffffffffffffffffffffffffffff166323b872dd3330846040518463ffffffff1660e01b8152600401610d3f93929190611828565b602060405180830381600087803b158015610d5957600080fd5b505af1158015610d6d573d6000803e3d6000fd5b505050506040513d601f19601f82011682018060405250810190610d91919061138b565b610d9a57600080fd5b600182604051610daa91906117f6565b908152602001604051809103902060009054906101000a900473ffffffffffffffffffffffffffffffffffffffff1673ffffffffffffffffffffffffffffffffffffffff1663a9059cbb33836040518363ffffffff1660e01b8152600401610e1392919061185f565b602060405180830381600087803b158015610e2d57600080fd5b505af1158015610e41573d6000803e3d6000fd5b505050506040513d601f19601f82011682018060405250810190610e65919061138b565b610e6e57600080fd5b610e7a838383846110aa565b505050565b6000600182604051610e9191906117f6565b908152602001604051809103902060009054906101000a900473ffffffffffffffffffffffffffffffffffffffff169050919050565b60025481565b600080670de0b6b3a764000083610ee49190611ab9565b9050600060025482610ef69190611aea565b905080471015610f3b576040517f08c379a0000000000000000000000000000000000000000000000000000000008152600401610f32906118e7565b60405180910390fd5b3373ffffffffffffffffffffffffffffffffffffffff166108fc829081150290604051600060405180830381858888f19350505050158015610f81573d6000803e3d6000fd5b50600185604051610f9291906117f6565b908152602001604051809103902060009054906101000a900473ffffffffffffffffffffffffffffffffffffffff1673ffffffffffffffffffffffffffffffffffffffff166323b872dd3330876040518463ffffffff1660e01b8152600401610ffd93929190611828565b602060405180830381600087803b15801561101757600080fd5b505af115801561102b573d6000803e3d6000fd5b505050506040513d601f19601f8201168201806040525081019061104f919061138b565b61105857600080fd5b60006040518060400160405280600581526020017f4574686572000000000000000000000000000000000000000000000000000000815250905061109e868287856110aa565b81935050505092915050565b600360008154809291906110bd90611c24565b9190505550600060035490506000600460008381526020019081526020016000209050818160000181905550338160050160006101000a81548173ffffffffffffffffffffffffffffffffffffffff021916908373ffffffffffffffffffffffffffffffffffffffff160217905550858160010190805190602001906111449291906111c4565b508481600201908051906020019061115d9291906111c4565b50838160030181905550828160040181905550505050505050565b6040518060c001604052806000815260200160608152602001606081526020016000815260200160008152602001600073ffffffffffffffffffffffffffffffffffffffff1681525090565b8280546111d090611bf2565b90600052602060002090601f0160209004810192826111f25760008555611239565b82601f1061120b57805160ff1916838001178555611239565b82800160010185558215611239579182015b8281111561123857825182559160200191906001019061121d565b5b509050611246919061124a565b5090565b5b8082111561126357600081600090555060010161124b565b5090565b600061127a611275846119c2565b611991565b90508281526020810184848401111561129257600080fd5b61129d848285611bb0565b509392505050565b60006112b86112b3846119c2565b611991565b9050828152602081018484840111156112d057600080fd5b6112db848285611bbf565b509392505050565b6000813590506112f281611d3a565b92915050565b60008151905061130781611d51565b92915050565b600082601f83011261131e57600080fd5b813561132e848260208601611267565b91505092915050565b600082601f83011261134857600080fd5b81516113588482602086016112a5565b91505092915050565b60008135905061137081611d68565b92915050565b60008151905061138581611d68565b92915050565b60006020828403121561139d57600080fd5b60006113ab848285016112f8565b91505092915050565b6000602082840312156113c657600080fd5b600082013567ffffffffffffffff8111156113e057600080fd5b6113ec8482850161130d565b91505092915050565b60006020828403121561140757600080fd5b600082015167ffffffffffffffff81111561142157600080fd5b61142d84828501611337565b91505092915050565b6000806040838503121561144957600080fd5b600083013567ffffffffffffffff81111561146357600080fd5b61146f8582860161130d565b9250506020611480858286016112e3565b9150509250929050565b60008060006060848603121561149f57600080fd5b600084013567ffffffffffffffff8111156114b957600080fd5b6114c58682870161130d565b935050602084013567ffffffffffffffff8111156114e257600080fd5b6114ee8682870161130d565b92505060406114ff86828701611361565b9150509250925092565b6000806040838503121561151c57600080fd5b600083013567ffffffffffffffff81111561153657600080fd5b6115428582860161130d565b925050602061155385828601611361565b9150509250929050565b60006020828403121561156f57600080fd5b600061157d84828501611361565b91505092915050565b60006020828403121561159857600080fd5b60006115a684828501611376565b91505092915050565b60006115bb8383611748565b905092915050565b6115cc81611b44565b82525050565b6115db81611b44565b82525050565b60006115ec82611a02565b6115f68185611a25565b935083602082028501611608856119f2565b8060005b85811015611644578484038952815161162585826115af565b945061163083611a18565b925060208a0199505060018101905061160c565b50829750879550505050505092915050565b61165f81611b8c565b82525050565b600061167082611a0d565b61167a8185611a36565b935061168a818560208601611bbf565b61169381611d29565b840191505092915050565b60006116a982611a0d565b6116b38185611a47565b93506116c3818560208601611bbf565b6116cc81611d29565b840191505092915050565b60006116e282611a0d565b6116ec8185611a58565b93506116fc818560208601611bbf565b80840191505092915050565b6000611715601b83611a47565b91507f4465782069732072756e6e696e67206c6f77206f6e2066756e647300000000006000830152602082019050919050565b600060c08301600083015161176060008601826117d8565b50602083015184820360208601526117788282611665565b915050604083015184820360408601526117928282611665565b91505060608301516117a760608601826117d8565b5060808301516117ba60808601826117d8565b5060a08301516117cd60a08601826115c3565b508091505092915050565b6117e181611b82565b82525050565b6117f081611b82565b82525050565b600061180282846116d7565b915081905092915050565b600060208201905061182260008301846115d2565b92915050565b600060608201905061183d60008301866115d2565b61184a60208301856115d2565b61185760408301846117e7565b949350505050565b600060408201905061187460008301856115d2565b61188160208301846117e7565b9392505050565b600060208201905081810360008301526118a281846115e1565b905092915050565b60006020820190506118bf6000830184611656565b92915050565b600060208201905081810360008301526118df818461169e565b905092915050565b6000602082019050818103600083015261190081611708565b9050919050565b600060208201905061191c60008301846117e7565b92915050565b600060c08201905061193760008301896117e7565b8181036020830152611949818861169e565b9050818103604083015261195d818761169e565b905061196c60608301866117e7565b61197960808301856117e7565b61198660a08301846115d2565b979650505050505050565b6000604051905081810181811067ffffffffffffffff821117156119b8576119b7611cfa565b5b8060405250919050565b600067ffffffffffffffff8211156119dd576119dc611cfa565b5b601f19601f8301169050602081019050919050565b6000819050602082019050919050565b600081519050919050565b600081519050919050565b6000602082019050919050565b600082825260208201905092915050565b600082825260208201905092915050565b600082825260208201905092915050565b600081905092915050565b6000611a6e82611b82565b9150611a7983611b82565b9250827fffffffffffffffffffffffffffffffffffffffffffffffffffffffffffffffff03821115611aae57611aad611c6d565b5b828201905092915050565b6000611ac482611b82565b9150611acf83611b82565b925082611adf57611ade611c9c565b5b828204905092915050565b6000611af582611b82565b9150611b0083611b82565b9250817fffffffffffffffffffffffffffffffffffffffffffffffffffffffffffffffff0483118215151615611b3957611b38611c6d565b5b828202905092915050565b6000611b4f82611b62565b9050919050565b60008115159050919050565b600073ffffffffffffffffffffffffffffffffffffffff82169050919050565b6000819050919050565b6000611b9782611b9e565b9050919050565b6000611ba982611b62565b9050919050565b82818337600083830152505050565b60005b83811015611bdd578082015181840152602081019050611bc2565b83811115611bec576000848401525b50505050565b60006002820490506001821680611c0a57607f821691505b60208210811415611c1e57611c1d611ccb565b5b50919050565b6000611c2f82611b82565b91507fffffffffffffffffffffffffffffffffffffffffffffffffffffffffffffffff821415611c6257611c61611c6d565b5b600182019050919050565b7f4e487b7100000000000000000000000000000000000000000000000000000000600052601160045260246000fd5b7f4e487b7100000000000000000000000000000000000000000000000000000000600052601260045260246000fd5b7f4e487b7100000000000000000000000000000000000000000000000000000000600052602260045260246000fd5b7f4e487b7100000000000000000000000000000000000000000000000000000000600052604160045260246000fd5b6000601f19601f8301169050919050565b611d4381611b44565b8114611d4e57600080fd5b50565b611d5a81611b56565b8114611d6557600080fd5b50565b611d7181611b82565b8114611d7c57600080fd5b5056fea2646970667358221220a13b7e436ceacdddd43f6e6a6d07009859dd8d55ec988285dea0da9f6b327ab864736f6c6343000800003360806040523480156200001157600080fd5b5060405162001a6138038062001a61833981810160405281019062000037919062000362565b818181600390805190602001906200005192919062000240565b5080600490805190602001906200006a92919062000240565b505050620000ac3362000082620000b460201b60201c565b600a62000090919062000597565b62989680620000a09190620006d4565b620000bd60201b60201c565b505062000852565b60006012905090565b600073ffffffffffffffffffffffffffffffffffffffff168273ffffffffffffffffffffffffffffffffffffffff16141562000130576040517f08c379a0000000000000000000000000000000000000000000000000000000008152600401620001279062000428565b60405180910390fd5b62000144600083836200023660201b60201c565b8060026000828254620001589190620004df565b92505081905550806000808473ffffffffffffffffffffffffffffffffffffffff1673ffffffffffffffffffffffffffffffffffffffff1681526020019081526020016000206000828254620001af9190620004df565b925050819055508173ffffffffffffffffffffffffffffffffffffffff16600073ffffffffffffffffffffffffffffffffffffffff167fddf252ad1be2c89b69c2b068fc378daa952ba7f163c4a11628f55a4df523b3ef836040516200021691906200044a565b60405180910390a362000232600083836200023b60201b60201c565b5050565b505050565b505050565b8280546200024e9062000782565b90600052602060002090601f016020900481019282620002725760008555620002be565b82601f106200028d57805160ff1916838001178555620002be565b82800160010185558215620002be579182015b82811115620002bd578251825591602001919060010190620002a0565b5b509050620002cd9190620002d1565b5090565b5b80821115620002ec576000816000905550600101620002d2565b5090565b60006200030762000301846200049b565b62000467565b9050828152602081018484840111156200032057600080fd5b6200032d8482856200074c565b509392505050565b600082601f8301126200034757600080fd5b815162000359848260208601620002f0565b91505092915050565b600080604083850312156200037657600080fd5b600083015167ffffffffffffffff8111156200039157600080fd5b6200039f8582860162000335565b925050602083015167ffffffffffffffff811115620003bd57600080fd5b620003cb8582860162000335565b9150509250929050565b6000620003e4601f83620004ce565b91507f45524332303a206d696e7420746f20746865207a65726f2061646472657373006000830152602082019050919050565b620004228162000735565b82525050565b600060208201905081810360008301526200044381620003d5565b9050919050565b600060208201905062000461600083018462000417565b92915050565b6000604051905081810181811067ffffffffffffffff8211171562000491576200049062000816565b5b8060405250919050565b600067ffffffffffffffff821115620004b957620004b862000816565b5b601f19601f8301169050602081019050919050565b600082825260208201905092915050565b6000620004ec8262000735565b9150620004f98362000735565b9250827fffffffffffffffffffffffffffffffffffffffffffffffffffffffffffffffff03821115620005315762000530620007b8565b5b828201905092915050565b6000808291508390505b60018511156200058e57808604811115620005665762000565620007b8565b5b6001851615620005765780820291505b8081029050620005868562000845565b945062000546565b94509492505050565b6000620005a48262000735565b9150620005b1836200073f565b9250620005e07fffffffffffffffffffffffffffffffffffffffffffffffffffffffffffffffff8484620005e8565b905092915050565b600082620005fa5760019050620006cd565b816200060a5760009050620006cd565b81600181146200062357600281146200062e5762000664565b6001915050620006cd565b60ff841115620006435762000642620007b8565b5b8360020a9150848211156200065d576200065c620007b8565b5b50620006cd565b5060208310610133831016604e8410600b84101617156200069e5782820a905083811115620006985762000697620007b8565b5b620006cd565b620006ad84848460016200053c565b92509050818404811115620006c757620006c6620007b8565b5b81810290505b9392505050565b6000620006e18262000735565b9150620006ee8362000735565b9250817fffffffffffffffffffffffffffffffffffffffffffffffffffffffffffffffff04831182151516156200072a5762000729620007b8565b5b828202905092915050565b6000819050919050565b600060ff82169050919050565b60005b838110156200076c5780820151818401526020810190506200074f565b838111156200077c576000848401525b50505050565b600060028204905060018216806200079b57607f821691505b60208210811415620007b257620007b1620007e7565b5b50919050565b7f4e487b7100000000000000000000000000000000000000000000000000000000600052601160045260246000fd5b7f4e487b7100000000000000000000000000000000000000000000000000000000600052602260045260246000fd5b7f4e487b7100000000000000000000000000000000000000000000000000000000600052604160045260246000fd5b60008160011c9050919050565b6111ff80620008626000396000f3fe608060405234801561001057600080fd5b50600436106100a95760003560e01c80633950935111610071578063395093511461016857806370a082311461019857806395d89b41146101c8578063a457c2d7146101e6578063a9059cbb14610216578063dd62ed3e14610246576100a9565b806306fdde03146100ae578063095ea7b3146100cc57806318160ddd146100fc57806323b872dd1461011a578063313ce5671461014a575b600080fd5b6100b6610276565b6040516100c39190610ec8565b60405180910390f35b6100e660048036038101906100e19190610b67565b610308565b6040516100f39190610ead565b60405180910390f35b61010461032b565b6040516101119190610fca565b60405180910390f35b610134600480360381019061012f9190610b18565b610335565b6040516101419190610ead565b60405180910390f35b610152610364565b60405161015f9190610fe5565b60405180910390f35b610182600480360381019061017d9190610b67565b61036d565b60405161018f9190610ead565b60405180910390f35b6101b260048036038101906101ad9190610ab3565b6103a4565b6040516101bf9190610fca565b60405180910390f35b6101d06103ec565b6040516101dd9190610ec8565b60405180910390f35b61020060048036038101906101fb9190610b67565b61047e565b60405161020d9190610ead565b60405180910390f35b610230600480360381019061022b9190610b67565b6104f5565b60405161023d9190610ead565b60405180910390f35b610260600480360381019061025b9190610adc565b610518565b60405161026d9190610fca565b60405180910390f35b606060038054610285906110fa565b80601f01602080910402602001604051908101604052809291908181526020018280546102b1906110fa565b80156102fe5780601f106102d3576101008083540402835291602001916102fe565b820191906000526020600020905b8154815290600101906020018083116102e157829003601f168201915b5050505050905090565b60008061031361059f565b90506103208185856105a7565b600191505092915050565b6000600254905090565b60008061034061059f565b905061034d858285610772565b6103588585856107fe565b60019150509392505050565b60006012905090565b60008061037861059f565b905061039981858561038a8589610518565b610394919061101c565b6105a7565b600191505092915050565b60008060008373ffffffffffffffffffffffffffffffffffffffff1673ffffffffffffffffffffffffffffffffffffffff168152602001908152602001600020549050919050565b6060600480546103fb906110fa565b80601f0160208091040260200160405190810160405280929190818152602001828054610427906110fa565b80156104745780601f1061044957610100808354040283529160200191610474565b820191906000526020600020905b81548152906001019060200180831161045757829003601f168201915b5050505050905090565b60008061048961059f565b905060006104978286610518565b9050838110156104dc576040517f08c379a00000000000000000000000000000000000000000000000000000000081526004016104d390610faa565b60405180910390fd5b6104e982868684036105a7565b60019250505092915050565b60008061050061059f565b905061050d8185856107fe565b600191505092915050565b6000600160008473ffffffffffffffffffffffffffffffffffffffff1673ffffffffffffffffffffffffffffffffffffffff16815260200190815260200160002060008373ffffffffffffffffffffffffffffffffffffffff1673ffffffffffffffffffffffffffffffffffffffff16815260200190815260200160002054905092915050565b600033905090565b600073ffffffffffffffffffffffffffffffffffffffff168373ffffffffffffffffffffffffffffffffffffffff161415610617576040517f08c379a000000000000000000000000000000000000000000000000000000000815260040161060e90610f8a565b60405180910390fd5b600073ffffffffffffffffffffffffffffffffffffffff168273ffffffffffffffffffffffffffffffffffffffff161415610687576040517f08c379a000000000000000000000000000000000000000000000000000000000815260040161067e90610f0a565b60405180910390fd5b80600160008573ffffffffffffffffffffffffffffffffffffffff1673ffffffffffffffffffffffffffffffffffffffff16815260200190815260200160002060008473ffffffffffffffffffffffffffffffffffffffff1673ffffffffffffffffffffffffffffffffffffffff168152602001908152602001600020819055508173ffffffffffffffffffffffffffffffffffffffff168373ffffffffffffffffffffffffffffffffffffffff167f8c5be1e5ebec7d5bd14f71427d1e84f3dd0314c0f7b2291e5b200ac8c7c3b925836040516107659190610fca565b60405180910390a3505050565b600061077e8484610518565b90507fffffffffffffffffffffffffffffffffffffffffffffffffffffffffffffffff81146107f857818110156107ea576040517f08c379a00000000000000000000000000000000000000000000000000000000081526004016107e190610f2a565b60405180910390fd5b6107f784848484036105a7565b5b50505050565b600073ffffffffffffffffffffffffffffffffffffffff168373ffffffffffffffffffffffffffffffffffffffff16141561086e576040517f08c379a000000000000000000000000000000000000000000000000000000000815260040161086590610f6a565b60405180910390fd5b600073ffffffffffffffffffffffffffffffffffffffff168273ffffffffffffffffffffffffffffffffffffffff1614156108de576040517f08c379a00000000000000000000000000000000000000000000000000000000081526004016108d590610eea565b60405180910390fd5b6108e9838383610a7f565b60008060008573ffffffffffffffffffffffffffffffffffffffff1673ffffffffffffffffffffffffffffffffffffffff1681526020019081526020016000205490508181101561096f576040517f08c379a000000000000000000000000000000000000000000000000000000000815260040161096690610f4a565b60405180910390fd5b8181036000808673ffffffffffffffffffffffffffffffffffffffff1673ffffffffffffffffffffffffffffffffffffffff16815260200190815260200160002081905550816000808573ffffffffffffffffffffffffffffffffffffffff1673ffffffffffffffffffffffffffffffffffffffff1681526020019081526020016000206000828254610a02919061101c565b925050819055508273ffffffffffffffffffffffffffffffffffffffff168473ffffffffffffffffffffffffffffffffffffffff167fddf252ad1be2c89b69c2b068fc378daa952ba7f163c4a11628f55a4df523b3ef84604051610a669190610fca565b60405180910390a3610a79848484610a84565b50505050565b505050565b505050565b600081359050610a988161119b565b92915050565b600081359050610aad816111b2565b92915050565b600060208284031215610ac557600080fd5b6000610ad384828501610a89565b91505092915050565b60008060408385031215610aef57600080fd5b6000610afd85828601610a89565b9250506020610b0e85828601610a89565b9150509250929050565b600080600060608486031215610b2d57600080fd5b6000610b3b86828701610a89565b9350506020610b4c86828701610a89565b9250506040610b5d86828701610a9e565b9150509250925092565b60008060408385031215610b7a57600080fd5b6000610b8885828601610a89565b9250506020610b9985828601610a9e565b9150509250929050565b610bac81611084565b82525050565b6000610bbd82611000565b610bc7818561100b565b9350610bd78185602086016110c7565b610be08161118a565b840191505092915050565b6000610bf860238361100b565b91507f45524332303a207472616e7366657220746f20746865207a65726f206164647260008301527f65737300000000000000000000000000000000000000000000000000000000006020830152604082019050919050565b6000610c5e60228361100b565b91507f45524332303a20617070726f766520746f20746865207a65726f20616464726560008301527f73730000000000000000000000000000000000000000000000000000000000006020830152604082019050919050565b6000610cc4601d8361100b565b91507f45524332303a20696e73756666696369656e7420616c6c6f77616e63650000006000830152602082019050919050565b6000610d0460268361100b565b91507f45524332303a207472616e7366657220616d6f756e742065786365656473206260008301527f616c616e636500000000000000000000000000000000000000000000000000006020830152604082019050919050565b6000610d6a60258361100b565b91507f45524332303a207472616e736665722066726f6d20746865207a65726f20616460008301527f64726573730000000000000000000000000000000000000000000000000000006020830152604082019050919050565b6000610dd060248361100b565b91507f45524332303a20617070726f76652066726f6d20746865207a65726f2061646460008301527f72657373000000000000000000000000000000000000000000000000000000006020830152604082019050919050565b6000610e3660258361100b565b91507f45524332303a2064656372656173656420616c6c6f77616e63652062656c6f7760008301527f207a65726f0000000000000000000000000000000000000000000000000000006020830152604082019050919050565b610e98816110b0565b82525050565b610ea7816110ba565b82525050565b6000602082019050610ec26000830184610ba3565b92915050565b60006020820190508181036000830152610ee28184610bb2565b905092915050565b60006020820190508181036000830152610f0381610beb565b9050919050565b60006020820190508181036000830152610f2381610c51565b9050919050565b60006020820190508181036000830152610f4381610cb7565b9050919050565b60006020820190508181036000830152610f6381610cf7565b9050919050565b60006020820190508181036000830152610f8381610d5d565b9050919050565b60006020820190508181036000830152610fa381610dc3565b9050919050565b60006020820190508181036000830152610fc381610e29565b9050919050565b6000602082019050610fdf6000830184610e8f565b92915050565b6000602082019050610ffa6000830184610e9e565b92915050565b600081519050919050565b600082825260208201905092915050565b6000611027826110b0565b9150611032836110b0565b9250827fffffffffffffffffffffffffffffffffffffffffffffffffffffffffffffffff038211156110675761106661112c565b5b828201905092915050565b600061107d82611090565b9050919050565b60008115159050919050565b600073ffffffffffffffffffffffffffffffffffffffff82169050919050565b6000819050919050565b600060ff82169050919050565b60005b838110156110e55780820151818401526020810190506110ca565b838111156110f4576000848401525b50505050565b6000600282049050600182168061111257607f821691505b602082108114156111265761112561115b565b5b50919050565b7f4e487b7100000000000000000000000000000000000000000000000000000000600052601160045260246000fd5b7f4e487b7100000000000000000000000000000000000000000000000000000000600052602260045260246000fd5b6000601f19601f8301169050919050565b6111a481611072565b81146111af57600080fd5b50565b6111bb816110b0565b81146111c657600080fd5b5056fea26469706673582212208056fb2ca028baba49b213d8df0a5e72145a7ca0aa2b2186122e4cae4b16683564736f6c63430008000033",
  "linkReferences": {},
  "deployedLinkReferences": {}
}